{
  "contractName": "newsDetection",
  "abi": [
    {
      "constant": true,
      "inputs": [
        {
          "name": "",
          "type": "uint256"
        }
      ],
      "name": "newsDetails",
      "outputs": [
        {
          "name": "newsId",
          "type": "uint256"
        },
        {
          "name": "newsPost",
          "type": "string"
        },
        {
          "name": "voteCount",
          "type": "uint256"
        },
        {
          "name": "fakeCount",
          "type": "uint256"
        },
        {
          "name": "votePercetage",
          "type": "uint256"
        }
      ],
      "payable": false,
      "stateMutability": "view",
      "type": "function",
      "signature": "0x2309ec7d"
    },
    {
      "constant": true,
      "inputs": [
        {
          "name": "",
          "type": "address"
        }
      ],
      "name": "evaluatorDetails",
      "outputs": [
        {
          "name": "evaluatorAddress",
          "type": "address"
        },
        {
          "name": "name",
          "type": "string"
        },
        {
          "name": "idn",
          "type": "string"
        },
        {
          "name": "profession",
          "type": "string"
        },
        {
          "name": "isVerified",
          "type": "bool"
        },
        {
          "name": "hasVoted",
          "type": "bool"
        },
        {
          "name": "isRegistered",
          "type": "bool"
        }
      ],
      "payable": false,
      "stateMutability": "view",
      "type": "function",
      "signature": "0x7e5f5726"
    },
    {
      "constant": true,
      "inputs": [
        {
          "name": "",
          "type": "uint256"
        }
      ],
      "name": "evaluators",
      "outputs": [
        {
          "name": "",
          "type": "address"
        }
      ],
      "payable": false,
      "stateMutability": "view",
      "type": "function",
      "signature": "0xe168afe3"
    },
    {
      "constant": true,
      "inputs": [],
      "name": "admin",
      "outputs": [
        {
          "name": "",
          "type": "address"
        }
      ],
      "payable": false,
      "stateMutability": "view",
      "type": "function",
      "signature": "0xf851a440"
    },
    {
      "inputs": [],
      "payable": false,
      "stateMutability": "nonpayable",
      "type": "constructor",
      "signature": "constructor"
    },
    {
      "constant": true,
      "inputs": [],
      "name": "getAdmin",
      "outputs": [
        {
          "name": "",
          "type": "address"
        }
      ],
      "payable": false,
      "stateMutability": "view",
      "type": "function",
      "signature": "0x6e9960c3"
    },
    {
      "constant": false,
      "inputs": [
        {
          "name": "_newsPost",
          "type": "string"
        }
      ],
      "name": "addNews",
      "outputs": [],
      "payable": false,
      "stateMutability": "nonpayable",
      "type": "function",
      "signature": "0x7f784da7"
    },
    {
      "constant": false,
      "inputs": [
        {
          "name": "_adminName",
          "type": "string"
        },
        {
          "name": "_adminEmail",
          "type": "string"
        },
        {
          "name": "_newsdetectionTitle",
          "type": "string"
        }
      ],
      "name": "setnewsDetectionDetails",
      "outputs": [],
      "payable": false,
      "stateMutability": "nonpayable",
      "type": "function",
      "signature": "0x8c315a20"
    },
    {
      "constant": true,
      "inputs": [],
      "name": "getAdminName",
      "outputs": [
        {
          "name": "",
          "type": "string"
        }
      ],
      "payable": false,
      "stateMutability": "view",
      "type": "function",
      "signature": "0x0e2354cf"
    },
    {
      "constant": true,
      "inputs": [],
      "name": "getAdminEmail",
      "outputs": [
        {
          "name": "",
          "type": "string"
        }
      ],
      "payable": false,
      "stateMutability": "view",
      "type": "function",
      "signature": "0x831318f1"
    },
    {
      "constant": true,
      "inputs": [],
      "name": "getnewsDetectionTitle",
      "outputs": [
        {
          "name": "",
          "type": "string"
        }
      ],
      "payable": false,
      "stateMutability": "view",
      "type": "function",
      "signature": "0x6441c7f3"
    },
    {
      "constant": true,
      "inputs": [],
      "name": "getTotalNews",
      "outputs": [
        {
          "name": "",
          "type": "uint256"
        }
      ],
      "payable": false,
      "stateMutability": "view",
      "type": "function",
      "signature": "0xd204ff3e"
    },
    {
      "constant": true,
      "inputs": [],
      "name": "getTotalEvaluator",
      "outputs": [
        {
          "name": "",
          "type": "uint256"
        }
      ],
      "payable": false,
      "stateMutability": "view",
      "type": "function",
      "signature": "0xbb7fa13a"
    },
    {
      "constant": false,
      "inputs": [
        {
          "name": "_name",
          "type": "string"
        },
        {
          "name": "_idn",
          "type": "string"
        },
        {
          "name": "_profession",
          "type": "string"
        }
      ],
      "name": "registerAsEvaluator",
      "outputs": [],
      "payable": false,
      "stateMutability": "nonpayable",
      "type": "function",
      "signature": "0x931cc348"
    },
    {
      "constant": false,
      "inputs": [
        {
          "name": "_verifedStatus",
          "type": "bool"
        },
        {
          "name": "evaluatorAddress",
          "type": "address"
        }
      ],
      "name": "verifyEvaluator",
      "outputs": [],
      "payable": false,
      "stateMutability": "nonpayable",
      "type": "function",
      "signature": "0x865c6619"
    },
    {
      "constant": false,
      "inputs": [
        {
          "name": "newsId",
          "type": "uint256"
        },
        {
          "name": "isFake",
          "type": "bool"
        }
      ],
      "name": "vote",
      "outputs": [],
      "payable": false,
      "stateMutability": "nonpayable",
      "type": "function",
      "signature": "0xc9d27afe"
    },
    {
      "constant": false,
      "inputs": [],
      "name": "endnewsDetection",
      "outputs": [],
      "payable": false,
      "stateMutability": "nonpayable",
      "type": "function",
      "signature": "0x656c0ce6"
    },
    {
      "constant": true,
      "inputs": [],
      "name": "getStart",
      "outputs": [
        {
          "name": "",
          "type": "bool"
        }
      ],
      "payable": false,
      "stateMutability": "view",
      "type": "function",
      "signature": "0xc5292c67"
    },
    {
      "constant": true,
      "inputs": [],
      "name": "getEnd",
      "outputs": [
        {
          "name": "",
          "type": "bool"
        }
      ],
      "payable": false,
      "stateMutability": "view",
      "type": "function",
      "signature": "0x9f05a36d"
    }
  ],
  "bytecode": "0x608060405234801561001057600080fd5b50336000806101000a81548173ffffffffffffffffffffffffffffffffffffffff021916908373ffffffffffffffffffffffffffffffffffffffff160217905550600060018190555060006002819055506000600360006101000a81548160ff0219169083151502179055506000600360016101000a81548160ff021916908315150217905550611b30806100a66000396000f3fe6080604052600436106100fc576000357c0100000000000000000000000000000000000000000000000000000000900463ffffffff1680630e2354cf146101015780632309ec7d146101915780636441c7f314610261578063656c0ce6146102f15780636e9960c3146103085780637e5f57261461035f5780637f784da714610555578063831318f11461061d578063865c6619146106ad5780638c315a201461070a578063931cc348146109005780639f05a36d14610af6578063bb7fa13a14610b25578063c5292c6714610b50578063c9d27afe14610b7f578063d204ff3e14610bc6578063e168afe314610bf1578063f851a44014610c6c575b600080fd5b34801561010d57600080fd5b50610116610cc3565b6040518080602001828103825283818151815260200191508051906020019080838360005b8381101561015657808201518184015260208101905061013b565b50505050905090810190601f1680156101835780820380516001836020036101000a031916815260200191505b509250505060405180910390f35b34801561019d57600080fd5b506101ca600480360360208110156101b457600080fd5b8101908080359060200190929190505050610d68565b6040518086815260200180602001858152602001848152602001838152602001828103825286818151815260200191508051906020019080838360005b83811015610222578082015181840152602081019050610207565b50505050905090810190601f16801561024f5780820380516001836020036101000a031916815260200191505b50965050505050505060405180910390f35b34801561026d57600080fd5b50610276610e36565b6040518080602001828103825283818151815260200191508051906020019080838360005b838110156102b657808201518184015260208101905061029b565b50505050905090810190601f1680156102e35780820380516001836020036101000a031916815260200191505b509250505060405180910390f35b3480156102fd57600080fd5b50610306610edb565b005b34801561031457600080fd5b5061031d610f6e565b604051808273ffffffffffffffffffffffffffffffffffffffff1673ffffffffffffffffffffffffffffffffffffffff16815260200191505060405180910390f35b34801561036b57600080fd5b506103ae6004803603602081101561038257600080fd5b81019080803573ffffffffffffffffffffffffffffffffffffffff169060200190929190505050610f97565b604051808873ffffffffffffffffffffffffffffffffffffffff1673ffffffffffffffffffffffffffffffffffffffff16815260200180602001806020018060200187151515158152602001861515151581526020018515151515815260200184810384528a818151815260200191508051906020019080838360005b8381101561044657808201518184015260208101905061042b565b50505050905090810190601f1680156104735780820380516001836020036101000a031916815260200191505b50848103835289818151815260200191508051906020019080838360005b838110156104ac578082015181840152602081019050610491565b50505050905090810190601f1680156104d95780820380516001836020036101000a031916815260200191505b50848103825288818151815260200191508051906020019080838360005b838110156105125780820151818401526020810190506104f7565b50505050905090810190601f16801561053f5780820380516001836020036101000a031916815260200191505b509a505050505050505050505060405180910390f35b34801561056157600080fd5b5061061b6004803603602081101561057857600080fd5b810190808035906020019064010000000081111561059557600080fd5b8201836020820111156105a757600080fd5b803590602001918460018302840111640100000000831117156105c957600080fd5b91908080601f016020809104026020016040519081016040528093929190818152602001838380828437600081840152601f19601f8201169050808301925050505050505091929192905050506111e8565b005b34801561062957600080fd5b506106326112ec565b6040518080602001828103825283818151815260200191508051906020019080838360005b83811015610672578082015181840152602081019050610657565b50505050905090810190601f16801561069f5780820380516001836020036101000a031916815260200191505b509250505060405180910390f35b3480156106b957600080fd5b50610708600480360360408110156106d057600080fd5b81019080803515159060200190929190803573ffffffffffffffffffffffffffffffffffffffff169060200190929190505050611391565b005b34801561071657600080fd5b506108fe6004803603606081101561072d57600080fd5b810190808035906020019064010000000081111561074a57600080fd5b82018360208201111561075c57600080fd5b8035906020019184600183028401116401000000008311171561077e57600080fd5b91908080601f016020809104026020016040519081016040528093929190818152602001838380828437600081840152601f19601f820116905080830192505050505050509192919290803590602001906401000000008111156107e157600080fd5b8201836020820111156107f357600080fd5b8035906020019184600183028401116401000000008311171561081557600080fd5b91908080601f016020809104026020016040519081016040528093929190818152602001838380828437600081840152601f19601f8201169050808301925050505050505091929192908035906020019064010000000081111561087857600080fd5b82018360208201111561088a57600080fd5b803590602001918460018302840111640100000000831117156108ac57600080fd5b91908080601f016020809104026020016040519081016040528093929190818152602001838380828437600081840152601f19601f82011690508083019250505050505050919291929050505061144a565b005b34801561090c57600080fd5b50610af46004803603606081101561092357600080fd5b810190808035906020019064010000000081111561094057600080fd5b82018360208201111561095257600080fd5b8035906020019184600183028401116401000000008311171561097457600080fd5b91908080601f016020809104026020016040519081016040528093929190818152602001838380828437600081840152601f19601f820116905080830192505050505050509192919290803590602001906401000000008111156109d757600080fd5b8201836020820111156109e957600080fd5b80359060200191846001830284011164010000000083111715610a0b57600080fd5b91908080601f016020809104026020016040519081016040528093929190818152602001838380828437600081840152601f19601f82011690508083019250505050505050919291929080359060200190640100000000811115610a6e57600080fd5b820183602082011115610a8057600080fd5b80359060200191846001830284011164010000000083111715610aa257600080fd5b91908080601f016020809104026020016040519081016040528093929190818152602001838380828437600081840152601f19601f820116905080830192505050505050509192919290505050611558565b005b348015610b0257600080fd5b50610b0b611773565b604051808215151515815260200191505060405180910390f35b348015610b3157600080fd5b50610b3a61178a565b6040518082815260200191505060405180910390f35b348015610b5c57600080fd5b50610b65611794565b604051808215151515815260200191505060405180910390f35b348015610b8b57600080fd5b50610bc460048036036040811015610ba257600080fd5b81019080803590602001909291908035151590602001909291905050506117ab565b005b348015610bd257600080fd5b50610bdb611968565b6040518082815260200191505060405180910390f35b348015610bfd57600080fd5b50610c2a60048036036020811015610c1457600080fd5b8101908080359060200190929190505050611972565b604051808273ffffffffffffffffffffffffffffffffffffffff1673ffffffffffffffffffffffffffffffffffffffff16815260200191505060405180910390f35b348015610c7857600080fd5b50610c816119b0565b604051808273ffffffffffffffffffffffffffffffffffffffff1673ffffffffffffffffffffffffffffffffffffffff16815260200191505060405180910390f35b606060056000018054600181600116156101000203166002900480601f016020809104026020016040519081016040528092919081815260200182805460018160011615610100020316600290048015610d5e5780601f10610d3357610100808354040283529160200191610d5e565b820191906000526020600020905b815481529060010190602001808311610d4157829003601f168201915b5050505050905090565b6004602052806000526040600020600091509050806000015490806001018054600181600116156101000203166002900480601f016020809104026020016040519081016040528092919081815260200182805460018160011615610100020316600290048015610e1a5780601f10610def57610100808354040283529160200191610e1a565b820191906000526020600020905b815481529060010190602001808311610dfd57829003601f168201915b5050505050908060020154908060030154908060040154905085565b606060056002018054600181600116156101000203166002900480601f016020809104026020016040519081016040528092919081815260200182805460018160011615610100020316600290048015610ed15780601f10610ea657610100808354040283529160200191610ed1565b820191906000526020600020905b815481529060010190602001808311610eb457829003601f168201915b5050505050905090565b6000809054906101000a900473ffffffffffffffffffffffffffffffffffffffff1673ffffffffffffffffffffffffffffffffffffffff163373ffffffffffffffffffffffffffffffffffffffff16141515610f3657600080fd5b6001600360016101000a81548160ff0219169083151502179055506000600360006101000a81548160ff021916908315150217905550565b60008060009054906101000a900473ffffffffffffffffffffffffffffffffffffffff16905090565b60096020528060005260406000206000915090508060000160009054906101000a900473ffffffffffffffffffffffffffffffffffffffff1690806001018054600181600116156101000203166002900480601f0160208091040260200160405190810160405280929190818152602001828054600181600116156101000203166002900480156110695780601f1061103e57610100808354040283529160200191611069565b820191906000526020600020905b81548152906001019060200180831161104c57829003601f168201915b505050505090806002018054600181600116156101000203166002900480601f0160208091040260200160405190810160405280929190818152602001828054600181600116156101000203166002900480156111075780601f106110dc57610100808354040283529160200191611107565b820191906000526020600020905b8154815290600101906020018083116110ea57829003601f168201915b505050505090806003018054600181600116156101000203166002900480601f0160208091040260200160405190810160405280929190818152602001828054600181600116156101000203166002900480156111a55780601f1061117a576101008083540402835291602001916111a5565b820191906000526020600020905b81548152906001019060200180831161118857829003601f168201915b5050505050908060040160009054906101000a900460ff16908060040160019054906101000a900460ff16908060040160029054906101000a900460ff16905087565b6000809054906101000a900473ffffffffffffffffffffffffffffffffffffffff1673ffffffffffffffffffffffffffffffffffffffff163373ffffffffffffffffffffffffffffffffffffffff1614151561124357600080fd5b61124b6119d5565b60a0604051908101604052806001548152602001838152602001600081526020016000815260200160008152509050806004600060015481526020019081526020016000206000820151816000015560208201518160010190805190602001906112b6929190611a05565b50604082015181600201556060820151816003015560808201518160040155905050600180600082825401925050819055505050565b606060056001018054600181600116156101000203166002900480601f0160208091040260200160405190810160405280929190818152602001828054600181600116156101000203166002900480156113875780601f1061135c57610100808354040283529160200191611387565b820191906000526020600020905b81548152906001019060200180831161136a57829003601f168201915b5050505050905090565b6000809054906101000a900473ffffffffffffffffffffffffffffffffffffffff1673ffffffffffffffffffffffffffffffffffffffff163373ffffffffffffffffffffffffffffffffffffffff161415156113ec57600080fd5b81600960008373ffffffffffffffffffffffffffffffffffffffff1673ffffffffffffffffffffffffffffffffffffffff16815260200190815260200160002060040160006101000a81548160ff0219169083151502179055505050565b6000809054906101000a900473ffffffffffffffffffffffffffffffffffffffff1673ffffffffffffffffffffffffffffffffffffffff163373ffffffffffffffffffffffffffffffffffffffff161415156114a557600080fd5b60606040519081016040528084815260200183815260200182815250600560008201518160000190805190602001906114df929190611a05565b5060208201518160010190805190602001906114fc929190611a05565b506040820151816002019080519060200190611519929190611a05565b509050506001600360006101000a81548160ff0219169083151502179055506000600360016101000a81548160ff021916908315150217905550505050565b611560611a85565b60e0604051908101604052803373ffffffffffffffffffffffffffffffffffffffff16815260200185815260200184815260200183815260200160001515815260200160001515815260200160011515815250905080600960003373ffffffffffffffffffffffffffffffffffffffff1673ffffffffffffffffffffffffffffffffffffffff16815260200190815260200160002060008201518160000160006101000a81548173ffffffffffffffffffffffffffffffffffffffff021916908373ffffffffffffffffffffffffffffffffffffffff1602179055506020820151816001019080519060200190611658929190611a05565b506040820151816002019080519060200190611675929190611a05565b506060820151816003019080519060200190611692929190611a05565b5060808201518160040160006101000a81548160ff02191690831515021790555060a08201518160040160016101000a81548160ff02191690831515021790555060c08201518160040160026101000a81548160ff02191690831515021790555090505060083390806001815401808255809150509060018203906000526020600020016000909192909190916101000a81548173ffffffffffffffffffffffffffffffffffffffff021916908373ffffffffffffffffffffffffffffffffffffffff16021790555050600160026000828254019250508190555050505050565b6000600360019054906101000a900460ff16905090565b6000600254905090565b6000600360009054906101000a900460ff16905090565b60001515600960003373ffffffffffffffffffffffffffffffffffffffff1673ffffffffffffffffffffffffffffffffffffffff16815260200190815260200160002060040160019054906101000a900460ff16151514151561180d57600080fd5b60011515600960003373ffffffffffffffffffffffffffffffffffffffff1673ffffffffffffffffffffffffffffffffffffffff16815260200190815260200160002060040160009054906101000a900460ff16151514151561186f57600080fd5b60011515600360009054906101000a900460ff16151514151561189157600080fd5b60001515600360019054906101000a900460ff1615151415156118b357600080fd5b80156118e35760016004600084815260200190815260200160002060030160008282540192505081905550611909565b600160046000848152602001908152602001600020600201600082825401925050819055505b6001600960003373ffffffffffffffffffffffffffffffffffffffff1673ffffffffffffffffffffffffffffffffffffffff16815260200190815260200160002060040160016101000a81548160ff0219169083151502179055505050565b6000600154905090565b60088181548110151561198157fe5b906000526020600020016000915054906101000a900473ffffffffffffffffffffffffffffffffffffffff1681565b6000809054906101000a900473ffffffffffffffffffffffffffffffffffffffff1681565b60a06040519081016040528060008152602001606081526020016000815260200160008152602001600081525090565b828054600181600116156101000203166002900490600052602060002090601f016020900481019282601f10611a4657805160ff1916838001178555611a74565b82800160010185558215611a74579182015b82811115611a73578251825591602001919060010190611a58565b5b509050611a819190611adf565b5090565b60e060405190810160405280600073ffffffffffffffffffffffffffffffffffffffff1681526020016060815260200160608152602001606081526020016000151581526020016000151581526020016000151581525090565b611b0191905b80821115611afd576000816000905550600101611ae5565b5090565b9056fea165627a7a7230582064e290395c55ca07a3dcc37cc1e2f0cfa9d22222b25ddbd53d23cf7794b6f6490029",
  "source": "// SPDX-License-Identifier: MIT\npragma solidity >=0.4.21 <0.9.0;\n\ncontract newsDetection {\n    address public admin;\n    uint256 newsCount;\n    uint256 evaluatorCount;\n    bool start;\n    bool end;\n\n    constructor() public {\n        // Initilizing default values\n        admin = msg.sender;\n        newsCount = 0;\n        evaluatorCount = 0;\n        start = false;\n        end = false;\n    }\n\n    function getAdmin() public view returns (address) {\n        // Returns account address used to deploy contract (i.e.  Admin only)\n        return admin;\n    }\n\n    modifier onlyAdmin() {\n        // Modifier for only Admin access\n        require(msg.sender == admin);\n        _;\n    }\n    // Modeling a news\n    struct News{\n        uint256 newsId;\n        string newsPost;\n        uint256 voteCount;\n\t\tuint256 fakeCount;\n        uint256 votePercetage;\n    }\n    mapping(uint256 => News) public newsDetails;\n\n    // Adding new newss\n    function addNews(string memory _newsPost)\n        public\n        \n        // Only Admin can add\n        onlyAdmin\n    {\n        News memory newNews=\n            News({\n                newsId: newsCount,\n                newsPost: _newsPost,\n                voteCount: 0,\n                fakeCount: 0,\n                votePercetage: 0\n            });\n        newsDetails[newsCount] = newNews;\n        newsCount += 1;\n    }\n\n    // Modeling a newsDetection Details\n    struct newsDetectionDetails {\n        string adminName;\n        string adminEmail;\n        string newsdetectionTitle;\n    }\n    newsDetectionDetails newsdetectionDetails;\n\n    function setnewsDetectionDetails(\n        string memory _adminName,\n        string memory _adminEmail,\n        string memory _newsdetectionTitle\n\n    )\n        public\n        // Only Admin can add\n        onlyAdmin\n    {\n        newsdetectionDetails = newsDetectionDetails(\n            _adminName,\n            _adminEmail,\n            _newsdetectionTitle\n\n        );\n        start = true;\n        end = false;\n    }\n\n    // Get newsDetections details\n    function getAdminName() public view returns (string memory) {\n        return newsdetectionDetails.adminName;\n    }\n\n    function getAdminEmail() public view returns (string memory) {\n        return newsdetectionDetails.adminEmail;\n    }\n\n    function getnewsDetectionTitle() public view returns (string memory) {\n        return newsdetectionDetails.newsdetectionTitle;\n    }\n      \n    // Get newss count\n    function getTotalNews() public view returns (uint256) {\n        // Returns total number of newss\n        return newsCount;\n    }\n\n    // Get evaluators count\n    function getTotalEvaluator() public view returns (uint256) {\n        // Returns total number of evaluators\n        return evaluatorCount;\n    }\n\n    // Modeling a evaluator\n    struct Evaluator {\n        address evaluatorAddress;\n        string name;\n        string idn;\n        string profession;\n        bool isVerified;\n        bool hasVoted;\n        bool isRegistered;\n    }\n    address[] public evaluators; // Array of address to store address of evaluators\n    mapping(address => Evaluator) public evaluatorDetails;\n\n    // Request to be added as evaluator\n    function registerAsEvaluator(string memory _name, string memory _idn, string memory _profession) public {\n        Evaluator memory newEvaluator =\n            Evaluator({\n                evaluatorAddress: msg.sender,\n                name: _name,\n                profession: _profession,\n                idn: _idn,\n                hasVoted: false,\n                isVerified: false,\n                isRegistered: true\n            });\n        evaluatorDetails[msg.sender] = newEvaluator;\n        evaluators.push(msg.sender);\n        evaluatorCount += 1;\n    }\n\n    // Verify evaluator\n    function verifyEvaluator(bool _verifedStatus, address evaluatorAddress)\n        public\n        // Only Admin can verify\n        onlyAdmin\n    {\n        evaluatorDetails[evaluatorAddress].isVerified = _verifedStatus;\n    }\n\n    // Vote\n    function vote(uint256 newsId, bool isFake) public {\n        require(evaluatorDetails[msg.sender].hasVoted == false);\n        require(evaluatorDetails[msg.sender].isVerified == true);\n        require(start == true);\n        require(end == false);\n\t\t\t\tif(isFake) {\n\t\t\t\t\tnewsDetails[newsId].fakeCount += 1;\n\t\t\t\t} else {\n\t\t\t\t\tnewsDetails[newsId].voteCount += 1;\n\t\t\t\t}\n        evaluatorDetails[msg.sender].hasVoted = true;\n    }\n\n    // End newsDetection\n    function endnewsDetection() public onlyAdmin {\n        end = true;\n        start = false;\n    }\n\n    // Get newsDetection start and end values\n    function getStart() public view returns (bool) {\n        return start;\n    }\n\n    function getEnd() public view returns (bool) {\n        return end;\n    }\n}",
  "sourcePath": "C:/Users/Anisu/Desktop/newsDetection_final/contracts/newsDetection.sol",
  "compiler": {
    "name": "solc",
    "version": "0.5.0+commit.1d4f565a.Emscripten.clang"
  },
  "schemaVersion": "3.0.1",
  "updatedAt": "2022-08-09T15:43:37.952Z",
  "devdoc": {
    "methods": {}
  },
  "userdoc": {
    "methods": {}
  }
}